{
  "contractName": "Favourite",
  "abi": [
    {
      "inputs": [
        {
          "internalType": "address",
          "name": "_favouriteWinner",
          "type": "address"
        }
      ],
      "stateMutability": "nonpayable",
      "type": "constructor"
    },
    {
      "inputs": [
        {
          "internalType": "address",
          "name": "user",
          "type": "address"
        }
      ],
      "name": "isFavourite",
      "outputs": [
        {
          "internalType": "bool",
          "name": "",
          "type": "bool"
        }
      ],
      "stateMutability": "view",
      "type": "function",
      "constant": true
    },
    {
      "inputs": [
        {
          "internalType": "address",
          "name": "_voteAddress",
          "type": "address"
        }
      ],
      "name": "setVoteAddress",
      "outputs": [],
      "stateMutability": "nonpayable",
      "type": "function"
    }
  ],
  "bytecode": "0x608060405234801561001057600080fd5b50604051610556380380610556833981810160405281019061003291906100ce565b806000806101000a81548173ffffffffffffffffffffffffffffffffffffffff021916908373ffffffffffffffffffffffffffffffffffffffff16021790555033600260006101000a81548173ffffffffffffffffffffffffffffffffffffffff021916908373ffffffffffffffffffffffffffffffffffffffff16021790555050610140565b6000815190506100c881610129565b92915050565b6000602082840312156100e057600080fd5b60006100ee848285016100b9565b91505092915050565b600061010282610109565b9050919050565b600073ffffffffffffffffffffffffffffffffffffffff82169050919050565b610132816100f7565b811461013d57600080fd5b50565b6104078061014f6000396000f3fe608060405234801561001057600080fd5b50600436106100365760003560e01c8063022e67541461003b578063fa82c8c01461006b575b600080fd5b61005560048036038101906100509190610258565b610087565b6040516100629190610310565b60405180910390f35b61008560048036038101906100809190610258565b61016f565b005b6000600160009054906101000a900473ffffffffffffffffffffffffffffffffffffffff1673ffffffffffffffffffffffffffffffffffffffff163373ffffffffffffffffffffffffffffffffffffffff1614610119576040517f08c379a00000000000000000000000000000000000000000000000000000000081526004016101109061032b565b60405180910390fd5b8173ffffffffffffffffffffffffffffffffffffffff1660008054906101000a900473ffffffffffffffffffffffffffffffffffffffff1673ffffffffffffffffffffffffffffffffffffffff16149050919050565b600260009054906101000a900473ffffffffffffffffffffffffffffffffffffffff1673ffffffffffffffffffffffffffffffffffffffff163373ffffffffffffffffffffffffffffffffffffffff16146101ff576040517f08c379a00000000000000000000000000000000000000000000000000000000081526004016101f69061034b565b60405180910390fd5b80600160006101000a81548173ffffffffffffffffffffffffffffffffffffffff021916908373ffffffffffffffffffffffffffffffffffffffff16021790555050565b600081359050610252816103ba565b92915050565b60006020828403121561026a57600080fd5b600061027884828501610243565b91505092915050565b61028a8161038e565b82525050565b600061029d60158361036b565b91507f4f6e6c7920566f74652e736f6c2063616e2075736500000000000000000000006000830152602082019050919050565b60006102dd60128361036b565b91507f4f6e6c79206f776e65722063616e2075736500000000000000000000000000006000830152602082019050919050565b60006020820190506103256000830184610281565b92915050565b6000602082019050818103600083015261034481610290565b9050919050565b60006020820190508181036000830152610364816102d0565b9050919050565b600082825260208201905092915050565b60006103878261039a565b9050919050565b60008115159050919050565b600073ffffffffffffffffffffffffffffffffffffffff82169050919050565b6103c38161037c565b81146103ce57600080fd5b5056fea2646970667358221220d95cf088bfcc5634de02a1b36b74cbb587318c5fedcac7131ad5064c52e148aa64736f6c63430008000033",
  "immutableReferences": {},
  "source": "// SPDX-License-Identifier: UNLICENSED\n\npragma solidity >=0.4.22 <0.9.0;\n\nimport \"@openzeppelin/contracts/utils/math/SafeMath.sol\";\n\ncontract Favourite {\n\n  address private favouriteWinner;\n  address voteAddress;\n  address owner;\n\n  modifier onlyVote() {\n      require(msg.sender == voteAddress, \"Only Vote.sol can use\");\n      _;\n  }\n\n  modifier onlyOwner() {\n      require(msg.sender == owner, \"Only owner can use\");\n      _;\n  }\n\n  constructor(address _favouriteWinner){\n    favouriteWinner = _favouriteWinner;\n    owner = msg.sender;\n  }\n\n  function isFavourite(address user) public view onlyVote returns(bool){\n    return (favouriteWinner == user);\n  }\n\n  function setVoteAddress(address _voteAddress) public onlyOwner{\n    voteAddress = _voteAddress;\n  }\n\n}\n",
  "sourcePath": "/Users/ioanaroceanu/Documents/blog-content/contracts/Favourite.sol",
  "compiler": {
    "name": "solc",
    "version": "0.8.0+commit.c7dfd78e.Emscripten.clang"
  },
  "schemaVersion": "3.4.1",
  "updatedAt": "2021-08-02T07:42:46.493Z",
  "networkType": "ethereum",
  "devdoc": {
    "kind": "dev",
    "methods": {},
    "version": 1
  },
  "userdoc": {
    "kind": "user",
    "methods": {},
    "version": 1
  }
}