{
  "contractName": "HelloWorld",
  "abi": [
    {
      "inputs": [
        {
          "internalType": "string",
          "name": "yourName",
          "type": "string"
        }
      ],
      "stateMutability": "nonpayable",
      "type": "constructor"
    },
    {
      "inputs": [],
      "name": "name",
      "outputs": [
        {
          "internalType": "string",
          "name": "",
          "type": "string"
        }
      ],
      "stateMutability": "view",
      "type": "function"
    },
    {
      "inputs": [],
      "name": "number",
      "outputs": [
        {
          "internalType": "uint256",
          "name": "",
          "type": "uint256"
        }
      ],
      "stateMutability": "view",
      "type": "function"
    },
    {
      "inputs": [],
      "name": "getStructNotModified",
      "outputs": [
        {
          "internalType": "uint256",
          "name": "",
          "type": "uint256"
        },
        {
          "internalType": "uint256",
          "name": "",
          "type": "uint256"
        }
      ],
      "stateMutability": "nonpayable",
      "type": "function"
    }
  ],
  "bytecode": "0x608060405234801561001057600080fd5b506040516106b03803806106b083398181016040528101906100329190610192565b8060009080519060200190610048929190610087565b506000600181905550604051806040016040528060038152602001600481525060026000820151816000015560208201518160010155905050506102f7565b82805461009390610267565b90600052602060002090601f0160209004810192826100b557600085556100fc565b82601f106100ce57805160ff19168380011785556100fc565b828001600101855582156100fc579182015b828111156100fb5782518255916020019190600101906100e0565b5b509050610109919061010d565b5090565b5b8082111561012657600081600090555060010161010e565b5090565b600061013d61013884610204565b6101d3565b90508281526020810184848401111561015557600080fd5b610160848285610234565b509392505050565b600082601f83011261017957600080fd5b815161018984826020860161012a565b91505092915050565b6000602082840312156101a457600080fd5b600082015167ffffffffffffffff8111156101be57600080fd5b6101ca84828501610168565b91505092915050565b6000604051905081810181811067ffffffffffffffff821117156101fa576101f96102c8565b5b8060405250919050565b600067ffffffffffffffff82111561021f5761021e6102c8565b5b601f19601f8301169050602081019050919050565b60005b83811015610252578082015181840152602081019050610237565b83811115610261576000848401525b50505050565b6000600282049050600182168061027f57607f821691505b6020821081141561029357610292610299565b5b50919050565b7f4e487b7100000000000000000000000000000000000000000000000000000000600052602260045260246000fd5b7f4e487b7100000000000000000000000000000000000000000000000000000000600052604160045260246000fd5b6103aa806103066000396000f3fe608060405234801561001057600080fd5b50600436106100415760003560e01c806306fdde0314610046578063832d3273146100645780638381f58a14610083575b600080fd5b61004e6100a1565b60405161005b91906101be565b60405180910390f35b61006c61012f565b60405161007a9291906101fb565b60405180910390f35b61008b610170565b60405161009891906101e0565b60405180910390f35b600080546100ae906102d3565b80601f01602080910402602001604051908101604052809291908181526020018280546100da906102d3565b80156101275780601f106100fc57610100808354040283529160200191610127565b820191906000526020600020905b81548152906001019060200180831161010a57829003601f168201915b505050505081565b60008061012c600260000160008282546101499190610240565b92505081905550600260000154600a6002600101546101689190610240565b915091509091565b60015481565b600061018182610224565b61018b818561022f565b935061019b8185602086016102a0565b6101a481610363565b840191505092915050565b6101b881610296565b82525050565b600060208201905081810360008301526101d88184610176565b905092915050565b60006020820190506101f560008301846101af565b92915050565b600060408201905061021060008301856101af565b61021d60208301846101af565b9392505050565b600081519050919050565b600082825260208201905092915050565b600061024b82610296565b915061025683610296565b9250827fffffffffffffffffffffffffffffffffffffffffffffffffffffffffffffffff0382111561028b5761028a610305565b5b828201905092915050565b6000819050919050565b60005b838110156102be5780820151818401526020810190506102a3565b838111156102cd576000848401525b50505050565b600060028204905060018216806102eb57607f821691505b602082108114156102ff576102fe610334565b5b50919050565b7f4e487b7100000000000000000000000000000000000000000000000000000000600052601160045260246000fd5b7f4e487b7100000000000000000000000000000000000000000000000000000000600052602260045260246000fd5b6000601f19601f830116905091905056fea264697066735822122035ff526b65ec6a348fd247f692443fc1db1ecb3b5df238680fdb179e3e5ff79b64736f6c63430008000033",
  "immutableReferences": {},
  "source": "pragma solidity >=0.4.22 <0.9.0;\n\ncontract HelloWorld {\n\n  string public name;\n  uint public number;\n\n  struct MyStruct {\n      uint variable_1;\n      uint variable_2;\n  }\n  MyStruct structInstance;\n\n  constructor(string memory yourName){\n    name = yourName;\n    number = 0;\n    structInstance = MyStruct(3,4);\n  }\n\n  function getStructNotModified() public returns(uint,uint){\n    structInstance.variable_1 +=300;\n    return (structInstance.variable_1, structInstance.variable_2 + 10);\n  }\n\n}\n",
  "sourcePath": "/Users/ioanaroceanu/Documents/blog-content/contracts/HelloWorld.sol",
  "compiler": {
    "name": "solc",
    "version": "0.8.0+commit.c7dfd78e.Emscripten.clang"
  },
  "schemaVersion": "3.4.1",
  "updatedAt": "2021-08-02T07:44:24.367Z",
  "devdoc": {
    "kind": "dev",
    "methods": {},
    "version": 1
  },
  "userdoc": {
    "kind": "user",
    "methods": {},
    "version": 1
  }
}