{
  "contractName": "Vote",
  "abi": [
    {
      "inputs": [
        {
          "internalType": "address",
          "name": "_favouriteAddress",
          "type": "address"
        }
      ],
      "stateMutability": "nonpayable",
      "type": "constructor"
    },
    {
      "inputs": [
        {
          "internalType": "address",
          "name": "",
          "type": "address"
        }
      ],
      "name": "votes",
      "outputs": [
        {
          "internalType": "uint256",
          "name": "",
          "type": "uint256"
        }
      ],
      "stateMutability": "view",
      "type": "function",
      "constant": true
    },
    {
      "inputs": [],
      "name": "winner_votes",
      "outputs": [
        {
          "internalType": "uint256",
          "name": "",
          "type": "uint256"
        }
      ],
      "stateMutability": "view",
      "type": "function",
      "constant": true
    },
    {
      "inputs": [
        {
          "internalType": "address",
          "name": "user",
          "type": "address"
        }
      ],
      "name": "vote",
      "outputs": [],
      "stateMutability": "nonpayable",
      "type": "function"
    }
  ],
  "bytecode": "0x608060405234801561001057600080fd5b506040516106d13803806106d1833981810160405281019061003291906100cf565b33600260006101000a81548173ffffffffffffffffffffffffffffffffffffffff021916908373ffffffffffffffffffffffffffffffffffffffff16021790555080600460006101000a81548173ffffffffffffffffffffffffffffffffffffffff021916908373ffffffffffffffffffffffffffffffffffffffff16021790555050610141565b6000815190506100c98161012a565b92915050565b6000602082840312156100e157600080fd5b60006100ef848285016100ba565b91505092915050565b60006101038261010a565b9050919050565b600073ffffffffffffffffffffffffffffffffffffffff82169050919050565b610133816100f8565b811461013e57600080fd5b50565b610581806101506000396000f3fe608060405234801561001057600080fd5b50600436106100415760003560e01c80636dd7d8ea14610046578063bbd2df1d14610062578063d8bff5a514610080575b600080fd5b610060600480360381019061005b91906103aa565b6100b0565b005b61006a61034c565b6040516100779190610435565b60405180910390f35b61009a600480360381019061009591906103aa565b610352565b6040516100a79190610435565b60405180910390f35b600460009054906101000a900473ffffffffffffffffffffffffffffffffffffffff1673ffffffffffffffffffffffffffffffffffffffff1663022e6754826040518263ffffffff1660e01b815260040161010b919061041a565b60206040518083038186803b15801561012357600080fd5b505afa158015610137573d6000803e3d6000fd5b505050506040513d601f19601f8201168201806040525081019061015b91906103d3565b80156101a5575060008060008373ffffffffffffffffffffffffffffffffffffffff1673ffffffffffffffffffffffffffffffffffffffff16815260200190815260200160002054145b156101ef5760016000808373ffffffffffffffffffffffffffffffffffffffff1673ffffffffffffffffffffffffffffffffffffffff168152602001908152602001600020819055505b6102386000808373ffffffffffffffffffffffffffffffffffffffff1673ffffffffffffffffffffffffffffffffffffffff16815260200190815260200160002054600161036a565b6000808373ffffffffffffffffffffffffffffffffffffffff1673ffffffffffffffffffffffffffffffffffffffff168152602001908152602001600020819055506003546000808373ffffffffffffffffffffffffffffffffffffffff1673ffffffffffffffffffffffffffffffffffffffff168152602001908152602001600020541115610349576000808273ffffffffffffffffffffffffffffffffffffffff1673ffffffffffffffffffffffffffffffffffffffff1681526020019081526020016000205460038190555080600160006101000a81548173ffffffffffffffffffffffffffffffffffffffff021916908373ffffffffffffffffffffffffffffffffffffffff1602179055505b50565b60035481565b60006020528060005260406000206000915090505481565b600081836103789190610450565b905092915050565b60008135905061038f8161051d565b92915050565b6000815190506103a481610534565b92915050565b6000602082840312156103bc57600080fd5b60006103ca84828501610380565b91505092915050565b6000602082840312156103e557600080fd5b60006103f384828501610395565b91505092915050565b610405816104a6565b82525050565b610414816104e4565b82525050565b600060208201905061042f60008301846103fc565b92915050565b600060208201905061044a600083018461040b565b92915050565b600061045b826104e4565b9150610466836104e4565b9250827fffffffffffffffffffffffffffffffffffffffffffffffffffffffffffffffff0382111561049b5761049a6104ee565b5b828201905092915050565b60006104b1826104c4565b9050919050565b60008115159050919050565b600073ffffffffffffffffffffffffffffffffffffffff82169050919050565b6000819050919050565b7f4e487b7100000000000000000000000000000000000000000000000000000000600052601160045260246000fd5b610526816104a6565b811461053157600080fd5b50565b61053d816104b8565b811461054857600080fd5b5056fea264697066735822122013089172d36eefc5763da4c6d40a56635359355cc740b8a41491e75b21823a8f64736f6c63430008000033",
  "immutableReferences": {},
  "source": "// SPDX-License-Identifier: UNLICENSED\n\npragma solidity >=0.4.22 <0.9.0;\n\nimport \"@openzeppelin/contracts/utils/math/SafeMath.sol\";\nimport \"./Favourite.sol\";\n\ncontract Vote {\n\n  mapping (address => uint) public votes;\n  address winner;\n  address owner;\n  uint public winner_votes;\n  Favourite favouriteContract;\n\n\n  constructor(address _favouriteAddress){\n    owner = msg.sender;\n    // bonus poins for the favourite player\n    favouriteContract = Favourite(_favouriteAddress);\n  }\n\n  function vote(address user) public{\n    // favourite player has a head start\n    if(favouriteContract.isFavourite(user) && votes[user] == 0){\n      votes[user] = 1;\n    }\n    votes[user] = SafeMath.add(votes[user], 1);\n    // user wins if it has the most votes\n    if(votes[user] > winner_votes){\n      winner_votes = votes[user];\n      winner = user;\n    }\n  }\n\n\n}\n",
  "sourcePath": "/Users/ioanaroceanu/Documents/blog-content/contracts/Vote.sol",
  "compiler": {
    "name": "solc",
    "version": "0.8.0+commit.c7dfd78e.Emscripten.clang"
  },
  "schemaVersion": "3.4.1",
  "updatedAt": "2021-08-02T07:42:46.490Z",
  "networkType": "ethereum",
  "devdoc": {
    "kind": "dev",
    "methods": {},
    "version": 1
  },
  "userdoc": {
    "kind": "user",
    "methods": {},
    "version": 1
  }
}